{
  "contractName": "Election",
  "abi": [
    {
      "constant": true,
      "inputs": [],
      "name": "datef2",
      "outputs": [
        {
          "name": "",
          "type": "uint256"
        }
      ],
      "payable": false,
      "stateMutability": "view",
      "type": "function",
      "signature": "0x07d26f06"
    },
    {
      "constant": true,
      "inputs": [],
      "name": "totalVotes",
      "outputs": [
        {
          "name": "",
          "type": "uint256"
        }
      ],
      "payable": false,
      "stateMutability": "view",
      "type": "function",
      "signature": "0x0d15fd77"
    },
    {
      "constant": true,
      "inputs": [],
      "name": "datef",
      "outputs": [
        {
          "name": "",
          "type": "uint256"
        }
      ],
      "payable": false,
      "stateMutability": "view",
      "type": "function",
      "signature": "0x1f612473"
    },
    {
      "constant": true,
      "inputs": [
        {
          "name": "",
          "type": "uint256"
        }
      ],
      "name": "candidates",
      "outputs": [
        {
          "name": "name",
          "type": "string"
        },
        {
          "name": "voteCount",
          "type": "uint256"
        },
        {
          "name": "first_name",
          "type": "string"
        }
      ],
      "payable": false,
      "stateMutability": "view",
      "type": "function",
      "signature": "0x3477ee2e"
    },
    {
      "constant": true,
      "inputs": [],
      "name": "datef3",
      "outputs": [
        {
          "name": "",
          "type": "uint256"
        }
      ],
      "payable": false,
      "stateMutability": "view",
      "type": "function",
      "signature": "0x3a135c7b"
    },
    {
      "constant": true,
      "inputs": [
        {
          "name": "",
          "type": "address"
        }
      ],
      "name": "voters",
      "outputs": [
        {
          "name": "voted",
          "type": "bool"
        },
        {
          "name": "vote",
          "type": "uint256"
        },
        {
          "name": "ins",
          "type": "bool"
        },
        {
          "name": "id",
          "type": "uint256"
        }
      ],
      "payable": false,
      "stateMutability": "view",
      "type": "function",
      "signature": "0xa3ec138d"
    },
    {
      "inputs": [],
      "payable": false,
      "stateMutability": "nonpayable",
      "type": "constructor",
      "signature": "constructor"
    },
    {
      "anonymous": false,
      "inputs": [
        {
          "indexed": false,
          "name": "candidateName",
          "type": "string"
        },
        {
          "indexed": false,
          "name": "voteCount",
          "type": "uint256"
        }
      ],
      "name": "Vote",
      "type": "event",
      "signature": "0x9c63d42e663889896c733776136625b0a7ed750b3da25058c975c4b572510d9b"
    },
    {
      "anonymous": false,
      "inputs": [
        {
          "indexed": false,
          "name": "candidateName",
          "type": "string"
        },
        {
          "indexed": false,
          "name": "voteCount",
          "type": "uint256"
        }
      ],
      "name": "res",
      "type": "event",
      "signature": "0x86e649a9323298e1b4985fb3acb97d399dd43a3036629a5bea4d93f1cf5ae9de"
    },
    {
      "anonymous": false,
      "inputs": [
        {
          "indexed": false,
          "name": "candidateName",
          "type": "string"
        }
      ],
      "name": "NewCandidate",
      "type": "event",
      "signature": "0x896847989b21b81e24c9eee2d32332cbef5090379a811d37690d053bebac7292"
    },
    {
      "anonymous": false,
      "inputs": [
        {
          "indexed": false,
          "name": "voterName",
          "type": "string"
        }
      ],
      "name": "Newvoter",
      "type": "event",
      "signature": "0x9bb0e0b164ee0d9a9414a0d90c84dc671ea7df3f7266b496534338d5da6a32b2"
    },
    {
      "constant": true,
      "inputs": [],
      "name": "getNumCandidate",
      "outputs": [
        {
          "name": "",
          "type": "uint256"
        }
      ],
      "payable": false,
      "stateMutability": "view",
      "type": "function",
      "signature": "0xd02cf3cf"
    },
    {
      "constant": false,
      "inputs": [
        {
          "name": "_id",
          "type": "uint256"
        },
        {
          "name": "_name",
          "type": "string"
        },
        {
          "name": "_first_name",
          "type": "string"
        },
        {
          "name": "_wilaya",
          "type": "string"
        },
        {
          "name": "_code",
          "type": "uint256"
        }
      ],
      "name": "addCandidate",
      "outputs": [],
      "payable": false,
      "stateMutability": "nonpayable",
      "type": "function",
      "signature": "0x42b4a8b0"
    },
    {
      "constant": false,
      "inputs": [
        {
          "name": "_id",
          "type": "uint256"
        },
        {
          "name": "_name",
          "type": "string"
        },
        {
          "name": "_first_name",
          "type": "string"
        },
        {
          "name": "_wilaya",
          "type": "string"
        }
      ],
      "name": "addVoter",
      "outputs": [],
      "payable": false,
      "stateMutability": "nonpayable",
      "type": "function",
      "signature": "0x2c9cc82b"
    },
    {
      "constant": false,
      "inputs": [
        {
          "name": "_candidate",
          "type": "uint256"
        }
      ],
      "name": "vote",
      "outputs": [],
      "payable": false,
      "stateMutability": "nonpayable",
      "type": "function",
      "signature": "0x0121b93f"
    },
    {
      "constant": true,
      "inputs": [],
      "name": "result",
      "outputs": [
        {
          "name": "",
          "type": "string"
        },
        {
          "name": "",
          "type": "string"
        },
        {
          "name": "",
          "type": "uint256"
        }
      ],
      "payable": false,
      "stateMutability": "view",
      "type": "function",
      "signature": "0x65372147"
    },
    {
      "constant": true,
      "inputs": [],
      "name": "timeSub1",
      "outputs": [
        {
          "name": "",
          "type": "bool"
        }
      ],
      "payable": false,
      "stateMutability": "view",
      "type": "function",
      "signature": "0x2b72f481"
    },
    {
      "constant": true,
      "inputs": [],
      "name": "timeSub2",
      "outputs": [
        {
          "name": "",
          "type": "bool"
        }
      ],
      "payable": false,
      "stateMutability": "view",
      "type": "function",
      "signature": "0x28b46d83"
    },
    {
      "constant": true,
      "inputs": [],
      "name": "timeVote",
      "outputs": [
        {
          "name": "",
          "type": "bool"
        }
      ],
      "payable": false,
      "stateMutability": "view",
      "type": "function",
      "signature": "0xbd319101"
    },
    {
      "constant": true,
      "inputs": [],
      "name": "timeResult",
      "outputs": [
        {
          "name": "",
          "type": "bool"
        }
      ],
      "payable": false,
      "stateMutability": "view",
      "type": "function",
      "signature": "0x6196738d"
    },
    {
      "constant": true,
      "inputs": [
        {
          "name": "_str",
          "type": "uint256"
        },
        {
          "name": "_str1",
          "type": "string"
        },
        {
          "name": "_str2",
          "type": "string"
        },
        {
          "name": "_str3",
          "type": "string"
        },
        {
          "name": "_c",
          "type": "uint256"
        }
      ],
      "name": "testStr",
      "outputs": [
        {
          "name": "",
          "type": "bool"
        }
      ],
      "payable": false,
      "stateMutability": "pure",
      "type": "function",
      "signature": "0xabb4dc8c"
    },
    {
      "constant": true,
      "inputs": [
        {
          "name": "_str",
          "type": "uint256"
        },
        {
          "name": "_str1",
          "type": "string"
        },
        {
          "name": "_str2",
          "type": "string"
        },
        {
          "name": "_str3",
          "type": "string"
        }
      ],
      "name": "testStr2",
      "outputs": [
        {
          "name": "",
          "type": "bool"
        }
      ],
      "payable": false,
      "stateMutability": "pure",
      "type": "function",
      "signature": "0xba079c29"
    }
  ],
  "bytecode": "0x60806040523480156200001157600080fd5b50610190420160058190555060c86005540160068190555060c860065401600781905550620000f36104576040805190810160405280600981526020017f62656e6d656464616800000000000000000000000000000000000000000000008152506040805190810160405280600781526020017f6d6f68616d6564000000000000000000000000000000000000000000000000008152506040805190810160405280600581526020017f626c6964610000000000000000000000000000000000000000000000000000008152506200057b640100000000026401000000009004565b620001b16104586040805190810160405280600981526020017f62656e6d656464616800000000000000000000000000000000000000000000008152506040805190810160405280600581526020017f796163696e0000000000000000000000000000000000000000000000000000008152506040805190810160405280600581526020017f626c6964610000000000000000000000000000000000000000000000000000008152506200057b640100000000026401000000009004565b6200026f6104596040805190810160405280600581526020017f68616d7a690000000000000000000000000000000000000000000000000000008152506040805190810160405280600681526020017f6b68616c656400000000000000000000000000000000000000000000000000008152506040805190810160405280600581526020017f616c6765720000000000000000000000000000000000000000000000000000008152506200057b640100000000026401000000009004565b6200033061045a6040805190810160405280600781526020017f626f757a69616e000000000000000000000000000000000000000000000000008152506040805190810160405280600581526020017f736d61696e0000000000000000000000000000000000000000000000000000008152506040805190810160405280600581526020017f626c6964610000000000000000000000000000000000000000000000000000008152506104d2620007b7640100000000026401000000009004565b620003f161045b6040805190810160405280600681526020017f626f6469616600000000000000000000000000000000000000000000000000008152506040805190810160405280600781526020017f6d6f68616d6564000000000000000000000000000000000000000000000000008152506040805190810160405280600581526020017f626c696461000000000000000000000000000000000000000000000000000000815250613034620007b7640100000000026401000000009004565b620004b361045c6040805190810160405280600481526020017f6b6f6269000000000000000000000000000000000000000000000000000000008152506040805190810160405280600581526020017f72616261680000000000000000000000000000000000000000000000000000008152506040805190810160405280600581526020017f626c6964610000000000000000000000000000000000000000000000000000008152506201e208620007b7640100000000026401000000009004565b6200057561045d6040805190810160405280600681526020017f7a626179657200000000000000000000000000000000000000000000000000008152506040805190810160405280600581526020017f61686d65640000000000000000000000000000000000000000000000000000008152506040805190810160405280600581526020017f626c6964610000000000000000000000000000000000000000000000000000008152506212d450620007b7640100000000026401000000009004565b62000a16565b60a060405190810160405280846040516020018080602001828103825283818151815260200191508051906020019080838360005b83811015620005cd578082015181840152602081019050620005b0565b50505050905090810190601f168015620005fb5780820380516001836020036101000a031916815260200191505b5092505050604051602081830303815290604052805190602001208152602001836040516020018080602001828103825283818151815260200191508051906020019080838360005b838110156200066157808201518184015260208101905062000644565b50505050905090810190601f1680156200068f5780820380516001836020036101000a031916815260200191505b5092505050604051602081830303815290604052805190602001208152602001826040516020018080602001828103825283818151815260200191508051906020019080838360005b83811015620006f5578082015181840152602081019050620006d8565b50505050905090810190601f168015620007235780820380516001836020036101000a031916815260200191505b509250505060405160208183030381529060405280519060200120815260200160006001028152602001600015158152506000808681526020019081526020016000206000820151816000015560208201518160010155604082015181600201556060820151816003015560808201518160040160006101000a81548160ff02191690831515021790555090505050505050565b60a060405190810160405280856040516020018080602001828103825283818151815260200191508051906020019080838360005b8381101562000809578082015181840152602081019050620007ec565b50505050905090810190601f168015620008375780820380516001836020036101000a031916815260200191505b5092505050604051602081830303815290604052805190602001208152602001846040516020018080602001828103825283818151815260200191508051906020019080838360005b838110156200089d57808201518184015260208101905062000880565b50505050905090810190601f168015620008cb5780820380516001836020036101000a031916815260200191505b5092505050604051602081830303815290604052805190602001208152602001836040516020018080602001828103825283818151815260200191508051906020019080838360005b838110156200093157808201518184015260208101905062000914565b50505050905090810190601f1680156200095f5780820380516001836020036101000a031916815260200191505b50925050506040516020818303038152906040528051906020012081526020018260405160200180828152602001915050604051602081830303815290604052805190602001208152602001600015158152506000808781526020019081526020016000206000820151816000015560208201518160010155604082015181600201556060820151816003015560808201518160040160006101000a81548160ff0219169083151502179055509050505050505050565b6138c58062000a266000396000f3fe6080604052600436106100f1576000357c0100000000000000000000000000000000000000000000000000000000900463ffffffff1680630121b93f146100f657806307d26f06146101315780630d15fd771461015c5780631f6124731461018757806328b46d83146101b25780632b72f481146101e15780632c9cc82b146102105780633477ee2e146104105780633a135c7b1461053757806342b4a8b0146105625780636196738d1461076c578063653721471461079b578063a3ec138d1461089e578063abb4dc8c14610920578063ba079c2914610b42578063bd31910114610d5a578063d02cf3cf14610d89575b600080fd5b34801561010257600080fd5b5061012f6004803603602081101561011957600080fd5b8101908080359060200190929190505050610db4565b005b34801561013d57600080fd5b5061014661124f565b6040518082815260200191505060405180910390f35b34801561016857600080fd5b50610171611255565b6040518082815260200191505060405180910390f35b34801561019357600080fd5b5061019c61125b565b6040518082815260200191505060405180910390f35b3480156101be57600080fd5b506101c7611261565b604051808215151515815260200191505060405180910390f35b3480156101ed57600080fd5b506101f661127e565b604051808215151515815260200191505060405180910390f35b34801561021c57600080fd5b5061040e6004803603608081101561023357600080fd5b81019080803590602001909291908035906020019064010000000081111561025a57600080fd5b82018360208201111561026c57600080fd5b8035906020019184600183028401116401000000008311171561028e57600080fd5b91908080601f016020809104026020016040519081016040528093929190818152602001838380828437600081840152601f19601f820116905080830192505050505050509192919290803590602001906401000000008111156102f157600080fd5b82018360208201111561030357600080fd5b8035906020019184600183028401116401000000008311171561032557600080fd5b91908080601f016020809104026020016040519081016040528093929190818152602001838380828437600081840152601f19601f8201169050808301925050505050505091929192908035906020019064010000000081111561038857600080fd5b82018360208201111561039a57600080fd5b803590602001918460018302840111640100000000831117156103bc57600080fd5b91908080601f016020809104026020016040519081016040528093929190818152602001838380828437600081840152601f19601f82011690508083019250505050505050919291929050505061129b565b005b34801561041c57600080fd5b506104496004803603602081101561043357600080fd5b8101908080359060200190929190505050611a0c565b604051808060200184815260200180602001838103835286818151815260200191508051906020019080838360005b83811015610493578082015181840152602081019050610478565b50505050905090810190601f1680156104c05780820380516001836020036101000a031916815260200191505b50838103825284818151815260200191508051906020019080838360005b838110156104f95780820151818401526020810190506104de565b50505050905090810190601f1680156105265780820380516001836020036101000a031916815260200191505b509550505050505060405180910390f35b34801561054357600080fd5b5061054c611b75565b6040518082815260200191505060405180910390f35b34801561056e57600080fd5b5061076a600480360360a081101561058557600080fd5b8101908080359060200190929190803590602001906401000000008111156105ac57600080fd5b8201836020820111156105be57600080fd5b803590602001918460018302840111640100000000831117156105e057600080fd5b91908080601f016020809104026020016040519081016040528093929190818152602001838380828437600081840152601f19601f8201169050808301925050505050505091929192908035906020019064010000000081111561064357600080fd5b82018360208201111561065557600080fd5b8035906020019184600183028401116401000000008311171561067757600080fd5b91908080601f016020809104026020016040519081016040528093929190818152602001838380828437600081840152601f19601f820116905080830192505050505050509192919290803590602001906401000000008111156106da57600080fd5b8201836020820111156106ec57600080fd5b8035906020019184600183028401116401000000008311171561070e57600080fd5b91908080601f016020809104026020016040519081016040528093929190818152602001838380828437600081840152601f19601f82011690508083019250505050505050919291929080359060200190929190505050611b7b565b005b34801561077857600080fd5b506107816123d4565b604051808215151515815260200191505060405180910390f35b3480156107a757600080fd5b506107b06123f1565b604051808060200180602001848152602001838103835286818151815260200191508051906020019080838360005b838110156107fa5780820151818401526020810190506107df565b50505050905090810190601f1680156108275780820380516001836020036101000a031916815260200191505b50838103825285818151815260200191508051906020019080838360005b83811015610860578082015181840152602081019050610845565b50505050905090810190601f16801561088d5780820380516001836020036101000a031916815260200191505b509550505050505060405180910390f35b3480156108aa57600080fd5b506108ed600480360360208110156108c157600080fd5b81019080803573ffffffffffffffffffffffffffffffffffffffff169060200190929190505050612626565b60405180851515151581526020018481526020018315151515815260200182815260200194505050505060405180910390f35b34801561092c57600080fd5b50610b28600480360360a081101561094357600080fd5b81019080803590602001909291908035906020019064010000000081111561096a57600080fd5b82018360208201111561097c57600080fd5b8035906020019184600183028401116401000000008311171561099e57600080fd5b91908080601f016020809104026020016040519081016040528093929190818152602001838380828437600081840152601f19601f82011690508083019250505050505050919291929080359060200190640100000000811115610a0157600080fd5b820183602082011115610a1357600080fd5b80359060200191846001830284011164010000000083111715610a3557600080fd5b91908080601f016020809104026020016040519081016040528093929190818152602001838380828437600081840152601f19601f82011690508083019250505050505050919291929080359060200190640100000000811115610a9857600080fd5b820183602082011115610aaa57600080fd5b80359060200191846001830284011164010000000083111715610acc57600080fd5b91908080601f016020809104026020016040519081016040528093929190818152602001838380828437600081840152601f19601f82011690508083019250505050505050919291929080359060200190929190505050612670565b604051808215151515815260200191505060405180910390f35b348015610b4e57600080fd5b50610d4060048036036080811015610b6557600080fd5b810190808035906020019092919080359060200190640100000000811115610b8c57600080fd5b820183602082011115610b9e57600080fd5b80359060200191846001830284011164010000000083111715610bc057600080fd5b91908080601f016020809104026020016040519081016040528093929190818152602001838380828437600081840152601f19601f82011690508083019250505050505050919291929080359060200190640100000000811115610c2357600080fd5b820183602082011115610c3557600080fd5b80359060200191846001830284011164010000000083111715610c5757600080fd5b91908080601f016020809104026020016040519081016040528093929190818152602001838380828437600081840152601f19601f82011690508083019250505050505050919291929080359060200190640100000000811115610cba57600080fd5b820183602082011115610ccc57600080fd5b80359060200191846001830284011164010000000083111715610cee57600080fd5b91908080601f016020809104026020016040519081016040528093929190818152602001838380828437600081840152601f19601f820116905080830192505050505050509192919290505050612f22565b604051808215151515815260200191505060405180910390f35b348015610d6657600080fd5b50610d6f6137bd565b604051808215151515815260200191505060405180910390f35b348015610d9557600080fd5b50610d9e6137e7565b6040518082815260200191505060405180910390f35b610dbc6137bd565b1515610e30576040517f08c379a00000000000000000000000000000000000000000000000000000000081526004018080602001828103825260178152602001807f506861736520647520766f7465207465726d696ec3a96500000000000000000081525060200191505060405180910390fd5b60008110151515610e4057600080fd5b600360003373ffffffffffffffffffffffffffffffffffffffff1673ffffffffffffffffffffffffffffffffffffffff16815260200190815260200160002060020160009054906101000a900460ff161515610f2a576040517f08c379a00000000000000000000000000000000000000000000000000000000081526004018080602001828103825260218152602001807f566f7573206e276574657320706173206175746f726973c3a9206120766f746581526020017f720000000000000000000000000000000000000000000000000000000000000081525060400191505060405180910390fd5b600360003373ffffffffffffffffffffffffffffffffffffffff1673ffffffffffffffffffffffffffffffffffffffff16815260200190815260200160002060000160009054906101000a900460ff16151515610fef576040517f08c379a00000000000000000000000000000000000000000000000000000000081526004018080602001828103825260158152602001807f566f7573206176657a2064c3a96a6120766f746572000000000000000000000081525060200191505060405180910390fd5b6002805490508110151561106b576040517f08c379a00000000000000000000000000000000000000000000000000000000081526004018080602001828103825260118152602001807f43616e646964617420696e76616c69646500000000000000000000000000000081525060200191505060405180910390fd5b80600360003373ffffffffffffffffffffffffffffffffffffffff1673ffffffffffffffffffffffffffffffffffffffff168152602001908152602001600020600101819055506001600360003373ffffffffffffffffffffffffffffffffffffffff1673ffffffffffffffffffffffffffffffffffffffff16815260200190815260200160002060000160006101000a81548160ff021916908315150217905550600160028281548110151561111e57fe5b906000526020600020906003020160010160008282540192505081905550600180600082825401925050819055507f9c63d42e663889896c733776136625b0a7ed750b3da25058c975c4b572510d9b60028281548110151561117c57fe5b906000526020600020906003020160000160028381548110151561119c57fe5b906000526020600020906003020160010154604051808060200183815260200182810382528481815460018160011615610100020316600290048152602001915080546001816001161561010002031660029004801561123d5780601f106112125761010080835404028352916020019161123d565b820191906000526020600020905b81548152906001019060200180831161122057829003601f168201915b5050935050505060405180910390a150565b60065481565b60015481565b60055481565b6000600654421015611276576001905061127b565b600090505b90565b60006005544210156112935760019050611298565b600090505b90565b6112a3611261565b1515611317576040517f08c379a000000000000000000000000000000000000000000000000000000000815260040180806020018281038252601d8152602001807f5068617365206427696e736372697074696f6e207465726d696ec3a96500000081525060200191505060405180910390fd5b61132384848484612f22565b1515611397576040517f08c379a000000000000000000000000000000000000000000000000000000000815260040180806020018281038252600e8152602001807f4572726575722073796e7461786500000000000000000000000000000000000081525060200191505060405180910390fd5b600360003373ffffffffffffffffffffffffffffffffffffffff1673ffffffffffffffffffffffffffffffffffffffff16815260200190815260200160002060020160009054906101000a900460ff1615151561145c576040517f08c379a00000000000000000000000000000000000000000000000000000000081526004018080602001828103825260198152602001807f566f757320c3a97465732064c3a96a6120696e7363726974200000000000000081525060200191505060405180910390fd5b60008085815260200190815260200160002060040160009054906101000a900460ff1615151561151a576040517f08c379a000000000000000000000000000000000000000000000000000000000815260040180806020018281038252602d8152602001807f566f757320c3a97465732064656a6120696e63726974206176656320756e652081526020017f617574726520616472657373650000000000000000000000000000000000000081525060400191505060405180910390fd5b826040516020018080602001828103825283818151815260200191508051906020019080838360005b8381101561155e578082015181840152602081019050611543565b50505050905090810190601f16801561158b5780820380516001836020036101000a031916815260200191505b50925050506040516020818303038152906040528051906020012060008086815260200190815260200160002060000154141515611657576040517f08c379a00000000000000000000000000000000000000000000000000000000081526004018080602001828103825260228152602001807f566f747265206e6f6d206f7520766f7472652049442065737420696e76616c6981526020017f646500000000000000000000000000000000000000000000000000000000000081525060400191505060405180910390fd5b816040516020018080602001828103825283818151815260200191508051906020019080838360005b8381101561169b578082015181840152602081019050611680565b50505050905090810190601f1680156116c85780820380516001836020036101000a031916815260200191505b5092505050604051602081830303815290604052805190602001206000808681526020019081526020016000206001015414151561176e576040517f08c379a000000000000000000000000000000000000000000000000000000000815260040180806020018281038252601a8152602001807f566f747265207072c3a96e6f6d2065737420696e76616c69646500000000000081525060200191505060405180910390fd5b806040516020018080602001828103825283818151815260200191508051906020019080838360005b838110156117b2578082015181840152602081019050611797565b50505050905090810190601f1680156117df5780820380516001836020036101000a031916815260200191505b50925050506040516020818303038152906040528051906020012060008086815260200190815260200160002060020154141515611885576040517f08c379a00000000000000000000000000000000000000000000000000000000081526004018080602001828103825260178152602001807f566f74726520636f64652065737420696e76616c69646500000000000000000081525060200191505060405180910390fd5b600360003373ffffffffffffffffffffffffffffffffffffffff1673ffffffffffffffffffffffffffffffffffffffff16815260200190815260200160002060000160009054906101000a900460ff161515156118e157600080fd5b600160008086815260200190815260200160002060040160006101000a81548160ff0219169083151502179055506001600360003373ffffffffffffffffffffffffffffffffffffffff1673ffffffffffffffffffffffffffffffffffffffff16815260200190815260200160002060020160006101000a81548160ff0219169083151502179055507f9bb0e0b164ee0d9a9414a0d90c84dc671ea7df3f7266b496534338d5da6a32b2836040518080602001828103825283818151815260200191508051906020019080838360005b838110156119cc5780820151818401526020810190506119b1565b50505050905090810190601f1680156119f95780820380516001836020036101000a031916815260200191505b509250505060405180910390a150505050565b600281815481101515611a1b57fe5b9060005260206000209060030201600091509050806000018054600181600116156101000203166002900480601f016020809104026020016040519081016040528092919081815260200182805460018160011615610100020316600290048015611ac75780601f10611a9c57610100808354040283529160200191611ac7565b820191906000526020600020905b815481529060010190602001808311611aaa57829003601f168201915b505050505090806001015490806002018054600181600116156101000203166002900480601f016020809104026020016040519081016040528092919081815260200182805460018160011615610100020316600290048015611b6b5780601f10611b4057610100808354040283529160200191611b6b565b820191906000526020600020905b815481529060010190602001808311611b4e57829003601f168201915b5050505050905083565b60075481565b611b8361127e565b1515611bf7576040517f08c379a000000000000000000000000000000000000000000000000000000000815260040180806020018281038252601d8152602001807f5068617365206427696e736372697074696f6e207465726d696ec3a96500000081525060200191505060405180910390fd5b611c0385858585612f22565b1515611c77576040517f08c379a000000000000000000000000000000000000000000000000000000000815260040180806020018281038252600d8152602001807f45726575722073796e746178650000000000000000000000000000000000000081525060200191505060405180910390fd5b600360003373ffffffffffffffffffffffffffffffffffffffff1673ffffffffffffffffffffffffffffffffffffffff16815260200190815260200160002060020160009054906101000a900460ff16151515611d3c576040517f08c379a00000000000000000000000000000000000000000000000000000000081526004018080602001828103825260188152602001807f566f757320c3a97465732064c3a96a6120696e7363726974000000000000000081525060200191505060405180910390fd5b60008086815260200190815260200160002060040160009054906101000a900460ff16151515611dfa576040517f08c379a000000000000000000000000000000000000000000000000000000000815260040180806020018281038252602f8152602001807f566f757320c3a97465732064c3a96a6120696e7363726974206176656320756e81526020017f652061757472652061647265737365000000000000000000000000000000000081525060400191505060405180910390fd5b836040516020018080602001828103825283818151815260200191508051906020019080838360005b83811015611e3e578082015181840152602081019050611e23565b50505050905090810190601f168015611e6b5780820380516001836020036101000a031916815260200191505b50925050506040516020818303038152906040528051906020012060008087815260200190815260200160002060000154141515611f37576040517f08c379a00000000000000000000000000000000000000000000000000000000081526004018080602001828103825260228152602001807f566f747265206e6f6d206f7520766f7472652049442065737420696e76616c6981526020017f646500000000000000000000000000000000000000000000000000000000000081525060400191505060405180910390fd5b826040516020018080602001828103825283818151815260200191508051906020019080838360005b83811015611f7b578082015181840152602081019050611f60565b50505050905090810190601f168015611fa85780820380516001836020036101000a031916815260200191505b5092505050604051602081830303815290604052805190602001206000808781526020019081526020016000206001015414151561204e576040517f08c379a000000000000000000000000000000000000000000000000000000000815260040180806020018281038252601a8152602001807f566f747265207072c3a96e6f6d2065737420696e76616c69646500000000000081525060200191505060405180910390fd5b816040516020018080602001828103825283818151815260200191508051906020019080838360005b83811015612092578082015181840152602081019050612077565b50505050905090810190601f1680156120bf5780820380516001836020036101000a031916815260200191505b50925050506040516020818303038152906040528051906020012060008087815260200190815260200160002060020154141515612165576040517f08c379a000000000000000000000000000000000000000000000000000000000815260040180806020018281038252601a8152602001807f566f74726520616472657373652065737420696e76616c69646500000000000081525060200191505060405180910390fd5b80604051602001808281526020019150506040516020818303038152906040528051906020012060008087815260200190815260200160002060030154141515612217576040517f08c379a00000000000000000000000000000000000000000000000000000000081526004018080602001828103825260178152602001807f566f74726520636f64652065737420696e76616c69646500000000000000000081525060200191505060405180910390fd5b600160008087815260200190815260200160002060040160006101000a81548160ff0219169083151502179055506001600360003373ffffffffffffffffffffffffffffffffffffffff1673ffffffffffffffffffffffffffffffffffffffff16815260200190815260200160002060020160006101000a81548160ff021916908315150217905550600260606040519081016040528086815260200160008152602001858152509080600181540180825580915050906001820390600052602060002090600302016000909192909190915060008201518160000190805190602001906123069291906137f4565b5060208201518160010155604082015181600201908051906020019061232d9291906137f4565b505050507f896847989b21b81e24c9eee2d32332cbef5090379a811d37690d053bebac7292846040518080602001828103825283818151815260200191508051906020019080838360005b83811015612393578082015181840152602081019050612378565b50505050905090810190601f1680156123c05780820380516001836020036101000a031916815260200191505b509250505060405180910390a15050505050565b60006007544211156123e957600190506123ee565b600090505b90565b60608060008060028054905011151561240957600080fd5b6000809050600080600090505b60028054905081101561247f578260028281548110151561243357fe5b90600052602060002090600302016001015411156124725760028181548110151561245a57fe5b90600052602060002090600302016001015492508091505b8080600101915050612416565b5060028181548110151561248f57fe5b90600052602060002090600302016000016002828154811015156124af57fe5b90600052602060002090600302016002016002838154811015156124cf57fe5b906000526020600020906003020160010154828054600181600116156101000203166002900480601f0160208091040260200160405190810160405280929190818152602001828054600181600116156101000203166002900480156125765780601f1061254b57610100808354040283529160200191612576565b820191906000526020600020905b81548152906001019060200180831161255957829003601f168201915b50505050509250818054600181600116156101000203166002900480601f0160208091040260200160405190810160405280929190818152602001828054600181600116156101000203166002900480156126125780601f106125e757610100808354040283529160200191612612565b820191906000526020600020905b8154815290600101906020018083116125f557829003601f168201915b505050505091509450945094505050909192565b60036020528060005260406000206000915090508060000160009054906101000a900460ff16908060010154908060020160009054906101000a900460ff16908060030154905084565b600080869050600083905060608790506060879050606087905060008511158061269b575060008351145b806126a7575060008251145b806126b3575060008151145b806126bf575060008411155b156126d257600095505050505050612f19565b60005b835181101561299057600084828151811015156126ee57fe5b9060200101517f010000000000000000000000000000000000000000000000000000000000000090047f010000000000000000000000000000000000000000000000000000000000000002905060307f010000000000000000000000000000000000000000000000000000000000000002817effffffffffffffffffffffffffffffffffffffffffffffffffffffffffffff1916101580156127d5575060397f010000000000000000000000000000000000000000000000000000000000000002817effffffffffffffffffffffffffffffffffffffffffffffffffffffffffffff191611155b158015612879575060417f010000000000000000000000000000000000000000000000000000000000000002817effffffffffffffffffffffffffffffffffffffffffffffffffffffffffffff1916101580156128775750605a7f010000000000000000000000000000000000000000000000000000000000000002817effffffffffffffffffffffffffffffffffffffffffffffffffffffffffffff191611155b155b801561291c575060617f010000000000000000000000000000000000000000000000000000000000000002817effffffffffffffffffffffffffffffffffffffffffffffffffffffffffffff19161015801561291a5750607a7f010000000000000000000000000000000000000000000000000000000000000002817effffffffffffffffffffffffffffffffffffffffffffffffffffffffffffff191611155b155b801561296d5750602e7f010000000000000000000000000000000000000000000000000000000000000002817effffffffffffffffffffffffffffffffffffffffffffffffffffffffffffff191614155b15612982576000975050505050505050612f19565b5080806001019150506126d5565b5060005b8251811015612c4f57600083828151811015156129ad57fe5b9060200101517f010000000000000000000000000000000000000000000000000000000000000090047f010000000000000000000000000000000000000000000000000000000000000002905060307f010000000000000000000000000000000000000000000000000000000000000002817effffffffffffffffffffffffffffffffffffffffffffffffffffffffffffff191610158015612a94575060397f010000000000000000000000000000000000000000000000000000000000000002817effffffffffffffffffffffffffffffffffffffffffffffffffffffffffffff191611155b158015612b38575060417f010000000000000000000000000000000000000000000000000000000000000002817effffffffffffffffffffffffffffffffffffffffffffffffffffffffffffff191610158015612b365750605a7f010000000000000000000000000000000000000000000000000000000000000002817effffffffffffffffffffffffffffffffffffffffffffffffffffffffffffff191611155b155b8015612bdb575060617f010000000000000000000000000000000000000000000000000000000000000002817effffffffffffffffffffffffffffffffffffffffffffffffffffffffffffff191610158015612bd95750607a7f010000000000000000000000000000000000000000000000000000000000000002817effffffffffffffffffffffffffffffffffffffffffffffffffffffffffffff191611155b155b8015612c2c5750602e7f010000000000000000000000000000000000000000000000000000000000000002817effffffffffffffffffffffffffffffffffffffffffffffffffffffffffffff191614155b15612c41576000975050505050505050612f19565b508080600101915050612994565b5060005b8151811015612f0e5760008282815181101515612c6c57fe5b9060200101517f010000000000000000000000000000000000000000000000000000000000000090047f010000000000000000000000000000000000000000000000000000000000000002905060307f010000000000000000000000000000000000000000000000000000000000000002817effffffffffffffffffffffffffffffffffffffffffffffffffffffffffffff191610158015612d53575060397f010000000000000000000000000000000000000000000000000000000000000002817effffffffffffffffffffffffffffffffffffffffffffffffffffffffffffff191611155b158015612df7575060417f010000000000000000000000000000000000000000000000000000000000000002817effffffffffffffffffffffffffffffffffffffffffffffffffffffffffffff191610158015612df55750605a7f010000000000000000000000000000000000000000000000000000000000000002817effffffffffffffffffffffffffffffffffffffffffffffffffffffffffffff191611155b155b8015612e9a575060617f010000000000000000000000000000000000000000000000000000000000000002817effffffffffffffffffffffffffffffffffffffffffffffffffffffffffffff191610158015612e985750607a7f010000000000000000000000000000000000000000000000000000000000000002817effffffffffffffffffffffffffffffffffffffffffffffffffffffffffffff191611155b155b8015612eeb5750602e7f010000000000000000000000000000000000000000000000000000000000000002817effffffffffffffffffffffffffffffffffffffffffffffffffffffffffffff191614155b15612f00576000975050505050505050612f19565b508080600101915050612c53565b506001955050505050505b95945050505050565b600080859050606085905060608590506060859050600084111580612f48575060008351145b80612f54575060008251145b80612f60575060008151145b15612f725760009450505050506137b5565b60005b835181101561322f5760008482815181101515612f8e57fe5b9060200101517f010000000000000000000000000000000000000000000000000000000000000090047f010000000000000000000000000000000000000000000000000000000000000002905060307f010000000000000000000000000000000000000000000000000000000000000002817effffffffffffffffffffffffffffffffffffffffffffffffffffffffffffff191610158015613075575060397f010000000000000000000000000000000000000000000000000000000000000002817effffffffffffffffffffffffffffffffffffffffffffffffffffffffffffff191611155b158015613119575060417f010000000000000000000000000000000000000000000000000000000000000002817effffffffffffffffffffffffffffffffffffffffffffffffffffffffffffff1916101580156131175750605a7f010000000000000000000000000000000000000000000000000000000000000002817effffffffffffffffffffffffffffffffffffffffffffffffffffffffffffff191611155b155b80156131bc575060617f010000000000000000000000000000000000000000000000000000000000000002817effffffffffffffffffffffffffffffffffffffffffffffffffffffffffffff1916101580156131ba5750607a7f010000000000000000000000000000000000000000000000000000000000000002817effffffffffffffffffffffffffffffffffffffffffffffffffffffffffffff191611155b155b801561320d5750602e7f010000000000000000000000000000000000000000000000000000000000000002817effffffffffffffffffffffffffffffffffffffffffffffffffffffffffffff191614155b1561322157600096505050505050506137b5565b508080600101915050612f75565b5060005b82518110156134ed576000838281518110151561324c57fe5b9060200101517f010000000000000000000000000000000000000000000000000000000000000090047f010000000000000000000000000000000000000000000000000000000000000002905060307f010000000000000000000000000000000000000000000000000000000000000002817effffffffffffffffffffffffffffffffffffffffffffffffffffffffffffff191610158015613333575060397f010000000000000000000000000000000000000000000000000000000000000002817effffffffffffffffffffffffffffffffffffffffffffffffffffffffffffff191611155b1580156133d7575060417f010000000000000000000000000000000000000000000000000000000000000002817effffffffffffffffffffffffffffffffffffffffffffffffffffffffffffff1916101580156133d55750605a7f010000000000000000000000000000000000000000000000000000000000000002817effffffffffffffffffffffffffffffffffffffffffffffffffffffffffffff191611155b155b801561347a575060617f010000000000000000000000000000000000000000000000000000000000000002817effffffffffffffffffffffffffffffffffffffffffffffffffffffffffffff1916101580156134785750607a7f010000000000000000000000000000000000000000000000000000000000000002817effffffffffffffffffffffffffffffffffffffffffffffffffffffffffffff191611155b155b80156134cb5750602e7f010000000000000000000000000000000000000000000000000000000000000002817effffffffffffffffffffffffffffffffffffffffffffffffffffffffffffff191614155b156134df57600096505050505050506137b5565b508080600101915050613233565b5060005b81518110156137ab576000828281518110151561350a57fe5b9060200101517f010000000000000000000000000000000000000000000000000000000000000090047f010000000000000000000000000000000000000000000000000000000000000002905060307f010000000000000000000000000000000000000000000000000000000000000002817effffffffffffffffffffffffffffffffffffffffffffffffffffffffffffff1916101580156135f1575060397f010000000000000000000000000000000000000000000000000000000000000002817effffffffffffffffffffffffffffffffffffffffffffffffffffffffffffff191611155b158015613695575060417f010000000000000000000000000000000000000000000000000000000000000002817effffffffffffffffffffffffffffffffffffffffffffffffffffffffffffff1916101580156136935750605a7f010000000000000000000000000000000000000000000000000000000000000002817effffffffffffffffffffffffffffffffffffffffffffffffffffffffffffff191611155b155b8015613738575060617f010000000000000000000000000000000000000000000000000000000000000002817effffffffffffffffffffffffffffffffffffffffffffffffffffffffffffff1916101580156137365750607a7f010000000000000000000000000000000000000000000000000000000000000002817effffffffffffffffffffffffffffffffffffffffffffffffffffffffffffff191611155b155b80156137895750602e7f010000000000000000000000000000000000000000000000000000000000000002817effffffffffffffffffffffffffffffffffffffffffffffffffffffffffffff191614155b1561379d57600096505050505050506137b5565b5080806001019150506134f1565b5060019450505050505b949350505050565b6000600754421080156137d1575060065442115b156137df57600190506137e4565b600090505b90565b6000600280549050905090565b828054600181600116156101000203166002900490600052602060002090601f016020900481019282601f1061383557805160ff1916838001178555613863565b82800160010185558215613863579182015b82811115613862578251825591602001919060010190613847565b5b5090506138709190613874565b5090565b61389691905b8082111561389257600081600090555060010161387a565b5090565b9056fea165627a7a72305820cced7620735ea8b093175f19553b718e72a2e2541ffa3427dea526c1086f2aac0029",
  "source": "pragma solidity ^0.5.0;\n\ncontract Election {\n\n    event Vote(string candidateName, uint voteCount);\n    event res(string candidateName, uint voteCount);\n    event NewCandidate(string candidateName);\n    event Newvoter(string voterName);\n\n    struct Candidate {\n        string name;\n        uint voteCount;\n        string first_name;\n    }\n    struct Voter {\n\n        bool voted;\n        uint vote;\n        bool ins;\n        uint id;\n    }\n   \n     struct citizen {\n\n        bytes32 nameCa;\n        bytes32 first_nameCa;\n        bytes32 wilayaCa;\n        bytes32 code;\n        bool insc;\n    }\n\n    mapping(uint => citizen) private citizens;\n    uint public totalVotes;\n    Candidate[] public candidates;\n    mapping(address => Voter) public voters;\n    address private owner;\n    uint public datef ;\n    uint public datef2 ;\n    uint public datef3;\n\n\n    constructor() public {\n     //  owner = msg.sender;\n         \n       datef = now +400;\n       datef2 =datef + 200;\n       datef3 = datef2 + 200;\n\n\n       add1(1111,\"benmeddah\",\"mohamed\",\"blida\");\n       add1(1112,\"benmeddah\",\"yacin\",\"blida\");\n       add1(1113,\"hamzi\",\"khaled\",\"alger\");\n       \n       add2(1114,\"bouzian\",\"smain\",\"blida\",1234);\n       add2(1115,\"bodiaf\",\"mohamed\",\"blida\",12340);\n       add2(1116,\"kobi\",\"rabah\",\"blida\",123400);\n       add2(1117,\"zbayer\",\"ahmed\",\"blida\",1234000);\n   \n\n      \n    }\n    \n    function add1(uint id, string memory n,  string memory fn, string memory w) private{\n\n        citizens[id]=citizen(keccak256(abi.encode(n)),keccak256(abi.encode(fn)),keccak256(abi.encode(w)),0,false);\n        \n    }\n      function add2(uint id, string memory n,  string memory fn, string memory w, uint c) private{\n\n        citizens[id]=citizen(keccak256(abi.encode(n)),keccak256(abi.encode(fn)),keccak256(abi.encode(w)),keccak256(abi.encode(c)),false);\n        \n    }\n\n    function getNumCandidate() public view returns (uint) {\n        return candidates.length;\n    }\n\n    function addCandidate(uint  _id,string memory _name,string memory _first_name,string memory _wilaya,uint  _code)  public {\n\n      require(timeSub1(),\"Phase d'inscription termine\");\n      require(testStr2(_id,_name,_first_name,_wilaya),\"Ereur syntaxe\");\n      require(!voters[msg.sender].ins,\"Vous tes dja inscrit\");\n      require(!citizens[_id].insc,\"Vous tes dja inscrit avec une autre adresse\");\n      require(citizens[_id].nameCa == keccak256(abi.encode(_name)),\"Votre nom ou votre ID est invalide\");\n      require(citizens[_id].first_nameCa == keccak256(abi.encode( _first_name)),\"Votre prnom est invalide\");\n      require(citizens[_id].wilayaCa == keccak256(abi.encode(_wilaya)),\"Votre adresse est invalide\");\n      require(citizens[_id].code == keccak256(abi.encode(_code)),\"Votre code est invalide\");\n        \n        citizens[_id].insc= true;\n        voters[msg.sender].ins= true;\n        candidates.push(Candidate(_name, 0, _first_name));\n        emit NewCandidate(_name);\n       \n    }\n\n    function addVoter(uint  _id,string memory _name,string memory _first_name,string  memory _wilaya)  public  {\n       \n       require(timeSub2(),\"Phase d'inscription termine\");\n       require(testStr2(_id,_name,_first_name,_wilaya),\"Erreur syntaxe\");\n       require(!voters[msg.sender].ins,\"Vous tes dja inscrit \");\n       require(!citizens[_id].insc,\"Vous tes deja incrit avec une autre adresse\");\n       require(citizens[_id].nameCa == keccak256(abi.encode(_name)),\"Votre nom ou votre ID est invalide\");\n       require(citizens[_id].first_nameCa == keccak256(abi.encode( _first_name)),\"Votre prnom est invalide\");\n       require(citizens[_id].wilayaCa == keccak256(abi.encode(_wilaya)),\"Votre code est invalide\");\n       require(!voters[msg.sender].voted);\n      \n         citizens[_id].insc= true;\n         voters[msg.sender].ins= true;\n         emit Newvoter(_name);\n     \n    }\n\n    function vote(uint _candidate) public {\n       \n        require(timeVote(),\"Phase du vote termine\");\n        require(_candidate >= 0);\n        require(voters[msg.sender].ins, \"Vous n'etes pas autoris a voter\");\n        require(!voters[msg.sender].voted, \"Vous avez dja voter\");\n        require(_candidate < candidates.length, \"Candidat invalide\");\n\n        voters[msg.sender].vote = _candidate;\n        voters[msg.sender].voted = true;\n        candidates[_candidate].voteCount += 1;\n        totalVotes += 1;\n        emit Vote(candidates[_candidate].name, candidates[_candidate].voteCount);\n    }\n    \n    function result()  public view returns(string memory, string memory, uint ){\n       // require(timeResult());\n        require(candidates.length>0);\n       \n        uint v=0;\n        uint p;\n        for(uint l=0;l<candidates.length;l++){\n            if(candidates[l].voteCount>v) {v=candidates[l].voteCount; p=l;   } \n    }\n\n        return (candidates[p].name,candidates[p].first_name,candidates[p].voteCount);\n        \n    }\n    \n    function timeSub1 () view public returns(bool) \n    {\n        if(now < datef ) return true;\n        else return false;\n        \n    }\n    \n    function timeSub2 () view public returns(bool) \n    {\n        if(now< datef2) return true;\n        else return false;\n    }\n    \n       function timeVote () view public returns(bool) \n    {\n        if((now < datef3)&&(now > datef2) ) return true;\n        else return false;\n    }\n     \n        function timeResult () view public returns(bool) \n    {\n        if(now > datef3)  return true;\n        else return false;\n    }\n\n\n   function testStr(uint _str,string memory _str1,string memory _str2,string memory _str3,uint _c) public pure returns (bool){\n    uint  b = _str;\n    uint bb= _c;\n    bytes memory b1 = bytes(_str1);\n    bytes memory b2= bytes(_str2);\n    bytes memory b3 = bytes(_str3);\n    if((b <= 0 )||(b1.length == 0)||(b2.length == 0)||(b3.length == 0)||(bb <= 0)) return false;\n    \n      for(uint i0; i0<b1.length; i0++){\n        bytes1 char = b1[i0];\n\n        if(\n            !(char >= 0x30 && char <= 0x39) && //9-0\n            !(char >= 0x41 && char <= 0x5A) && //A-Z\n            !(char >= 0x61 && char <= 0x7A) && //a-z\n            !(char == 0x2E) //.\n        )\n            return false;\n    }\n    \n      for(uint i0; i0<b2.length; i0++){\n        bytes1 char = b2[i0];\n\n        if(\n            !(char >= 0x30 && char <= 0x39) && //9-0\n            !(char >= 0x41 && char <= 0x5A) && //A-Z\n            !(char >= 0x61 && char <= 0x7A) && //a-z\n            !(char == 0x2E) //.\n        )\n            return false;\n    }\n    \n      for(uint i0; i0<b3.length; i0++){\n        bytes1 char = b3[i0];\n\n        if(\n            !(char >= 0x30 && char <= 0x39) && //9-0\n            !(char >= 0x41 && char <= 0x5A) && //A-Z\n            !(char >= 0x61 && char <= 0x7A) && //a-z\n            !(char == 0x2E) //.\n        )\n            return false;\n    }\n\n    return true;\n  }\n       \n\n    function testStr2(uint _str,string memory _str1,string memory _str2,string memory _str3) public pure returns (bool){\n         \n          uint  b = _str;\n          bytes memory b1 = bytes(_str1);\n          bytes memory b2= bytes(_str2);\n          bytes memory b3 = bytes(_str3);\n        \n          if((b <= 0 )||(b1.length == 0)||(b2.length == 0)||(b3.length == 0)) return false;\n\n    \n    \n      for(uint i0; i0<b1.length; i0++){\n        bytes1 char = b1[i0];\n\n        if(\n            !(char >= 0x30 && char <= 0x39) && //9-0\n            !(char >= 0x41 && char <= 0x5A) && //A-Z\n            !(char >= 0x61 && char <= 0x7A) && //a-z\n            !(char == 0x2E) //.\n        )\n            return false;\n    }\n    \n      for(uint i0; i0<b2.length; i0++){\n        bytes1 char = b2[i0];\n\n        if(\n            !(char >= 0x30 && char <= 0x39) && //9-0\n            !(char >= 0x41 && char <= 0x5A) && //A-Z\n            !(char >= 0x61 && char <= 0x7A) && //a-z\n            !(char == 0x2E) //.\n        )\n            return false;\n    }\n    \n      for(uint i0; i0<b3.length; i0++){\n        bytes1 char = b3[i0];\n\n        if(\n            !(char >= 0x30 && char <= 0x39) && //9-0\n            !(char >= 0x41 && char <= 0x5A) && //A-Z\n            !(char >= 0x61 && char <= 0x7A) && //a-z\n            !(char == 0x2E) //.\n        )\n            return false;\n    }\n\n    return true;\n}\n\n}\n",
  "sourcePath": "/home/sidahmed/dapp/Vote/contracts/Election.sol",
  "compiler": {
    "name": "solc",
    "version": "0.5.0+commit.1d4f565a.Emscripten.clang"
  },
  "schemaVersion": "3.0.8",
  "updatedAt": "2019-07-16T11:15:09.062Z",
  "devdoc": {
    "methods": {}
  },
  "userdoc": {
    "methods": {}
  }
}